:100000000C942A000C9447000C9447000C94470071
:100010000C9447000C9499010C9447000C944700F1
:100020000C9447000C9447000C9447000C94740106
:100030000C9447000C9447000C9447000C94470024
:100040000C9447000C9447000C9447000C94470014
:100050000C94470011241FBECFE5D8E0DEBFCDBF12
:1000600010E0A0E6B0E0E6E9F7E002C005900D92EE
:10007000A236B107D9F720E0A2E6B0E001C01D9298
:10008000AF36B207E1F70E94D6000C94C9030C9476
:10009000000041E062E086E00E940E0141E063E082
:1000A00086E00E940E0141E064E086E00E940E01BD
:1000B00062E086E00E94F60063E086E00E94F600BF
:1000C00064E086E00E94F60040E065E086E00E9481
:1000D0000E0140E066E086E00E940E0140E067E02D
:1000E00086E00E940E0165E086E00E94F60066E070
:1000F00086E00E94F60067E086E00E94F600089520
:10010000EF92FF920F931F93CF93DF937C01D2E086
:1001100011E320C06D2F86E00E943A01C5E011C0B6
:100120006C2F86E00E945301811108C06D2F86E07C
:100130000E94F600F701108301E002C01F5F00E09B
:10014000CF5FC83068F36D2F86E00E94F600013063
:1001500019F0DF5FD530F0F2802FDF91CF911F9142
:100160000F91FF90EF900895CF93DF93EC01809172
:100170006200882319F0813039F011C0CE010E944D
:100180008000809362000BC084E190E00E94F9013E
:10019000811105C0CE010E94800080936200DF9132
:1001A000CF91089541E00E940E010895CF93DF930F
:1001B0001F92CDB7DEB70E94490064E083E00E9441
:1001C000D20065E083E00E94D20066E083E00E94F6
:1001D000D20067E083E00E94D200CE0101960E9427
:1001E000B40089818295807F88BBF7CF8A3090F4F4
:1001F000EBE3F0E0E81BF109683070F481E090E097
:1002000002C0880F991F6A95E2F79081892B80833D
:1002100084E0089582E0089581E008958A3020F511
:100220002AE330E0F901E81BF1096830F8F44130C5
:1002300061F481E090E002C0880F991F6A95E2F7AF
:100240009081892B808384E00895411111C081E061
:1002500090E002C0880F991F6A95E2F7809590811F
:100260008923808384E0089582E0089581E00895E1
:1002700083E008958A3098F4EBE3F0E0E81BF1099D
:10028000683078F481E090E002C0880F991F6A9589
:10029000E2F7809590818923808384E0089582E04D
:1002A000089581E008958A30D8F4E9E3F0E0E81B8E
:1002B000F109408181E090E09C01062E02C0220FEE
:1002C000331F0A94E2F7842F90E08223932302C025
:1002D000959587956A95E2F7892B21F081E008953D
:1002E00082E0089580E008951F920F920FB60F925A
:1002F00011248F939F93AF93BF9380916B00909144
:100300006C00A0916D00B0916E000196A11DB11D11
:1003100080936B0090936C00A0936D00B0936E007F
:10032000BF91AF919F918F910F900FBE0F901F9033
:1003300018951F920F920FB60F9211248F939F93CF
:10034000AF93BF938091670090916800A09169007E
:10035000B0916A000196A11DB11D80936700909332
:100360006800A0936900B0936A00BF91AF919F911C
:100370008F910F900FBE0F901F90189589B78064D2
:1003800089BF8FB780688FBF08958130910521F4B0
:1003900085B5816085BD08958830910521F485B5C6
:1003A000826085BD08958032910521F485B5836012
:1003B00085BD08958034910521F485B5846085BD9F
:1003C00008958038910521F485B5856085BD08952F
:1003D000811521E0920721F485B5866085BD0895D9
:1003E0008430944019F485B5876085BD089515BCA7
:1003F0000895CF93BC0190916000933031F580E077
:1004000090E00E94EE022FE632E143E85AE30E94B8
:100410004D0220E030E04FE753E40E944D020E947D
:100420007C030E94BF02609363007093640080931A
:100430006500909366000E94BE0188E090E00E94F3
:10044000C50182E08093600025C040916700509113
:1004500068006091690070916A00809163009091DA
:100460006400A0916500B0916600481759076A07BB
:100470007B0779F40E94F70183E08093600010927B
:100480006700109268001092690010926A00C0E044
:1004900001C0C1E08C2FCF9108950E9461020C949D
:1004A00042030E943B0358F00E94340340F029F4B9
:1004B0005F3F29F00C942B0351110C9476030C949C
:1004C00031030E94530368F39923B1F3552391F349
:1004D000951B550BBB27AA2762177307840738F0B3
:1004E0009F5F5F4F220F331F441FAA1FA9F335D010
:1004F0000E2E3AF0E0E832D091505040E695001CC4
:10050000CAF72BD0FE2F29D0660F771F881FBB1F7D
:10051000261737074807AB07B0E809F0BB0B802D5B
:10052000BF01FF2793585F4F3AF09E3F510578F087
:100530000C942B030C9476035F3FE4F3983ED4F3C2
:10054000869577956795B795F7959F5FC9F7880F5B
:10055000911D9695879597F90895E1E0660F771FAD
:10056000881FBB1F621773078407BA0720F0621B3E
:10057000730B840BBA0BEE1F88F7E09508950E9469
:100580005B0388F09F5798F0B92F9927B751B0F0C7
:10059000E1F0660F771F881F991F1AF0BA95C9F707
:1005A00014C0B13091F00E947503B1E008950C942D
:1005B0007503672F782F8827B85F39F0B93FCCF3E0
:1005C000869577956795B395D9F73EF49095809584
:1005D000709561957F4F8F4F9F4F0895E89409C0A4
:1005E00097FB3EF490958095709561957F4F8F4F66
:1005F0009F4F9923A9F0F92F96E9BB279395F6957C
:10060000879577956795B795F111F8CFFAF4BB0FF9
:1006100011F460FF1BC06F5F7F4F8F4F9F4F16C05D
:10062000882311F096E911C0772321F09EE8872FE7
:10063000762F05C0662371F096E8862F70E060E0A3
:100640002AF09A95660F771F881FDAF7880F96951C
:10065000879597F9089597F99F6780E870E060E0C3
:1006600008959FEF80EC089500240A94161617064B
:1006700018060906089500240A9412161306140693
:1006800005060895092E0394000C11F4882352F0F6
:10069000BB0F40F4BF2B11F460FF04C06F5F7F4FAE
:1006A0008F4F9F4F089557FD9058440F551F59F095
:1006B0005F3F71F04795880F97FB991F61F09F3F4F
:1006C00079F087950895121613061406551FF2CF78
:1006D0004695F1DF08C0161617061806991FF1CFC8
:1006E00086957105610508940895E894BB276627EF
:1006F0007727CB0197F908950E945B03E8F09E37B6
:10070000E8F09639B8F49E3848F4672F782F882798
:10071000985FF9CF86957795679593959539D0F33E
:10072000B62FB1706B0F711D811D20F487957795E1
:10073000679593950C94A0030C94BB030C947603DB
:10074000882371F4772321F09850872B762F07C0E8
:10075000662311F499270DC09051862B70E060E05C
:100760002AF09A95660F771F881FDAF7880F9695FB
:10077000879597F908959F3F31F0915020F4879520
:1007800077956795B795880F911D9695879597F9F9
:060790000895F894FFCF6C
:0207960003005E
:00000001FF
